{
  "_format": "hh-sol-artifact-1",
  "contractName": "Lottery",
  "sourceName": "contracts/Lottery.sol",
  "abi": [
    {
      "anonymous": false,
      "inputs": [
        {
          "indexed": true,
          "internalType": "address",
          "name": "owner",
          "type": "address"
        },
        {
          "indexed": true,
          "internalType": "uint256",
          "name": "ticketId",
          "type": "uint256"
        }
      ],
      "name": "Expired",
      "type": "event"
    },
    {
      "anonymous": false,
      "inputs": [
        {
          "indexed": true,
          "internalType": "address",
          "name": "owner",
          "type": "address"
        },
        {
          "indexed": true,
          "internalType": "uint256",
          "name": "ticketId",
          "type": "uint256"
        }
      ],
      "name": "Lost",
      "type": "event"
    },
    {
      "anonymous": false,
      "inputs": [
        {
          "indexed": true,
          "internalType": "address",
          "name": "owner",
          "type": "address"
        },
        {
          "indexed": true,
          "internalType": "uint256",
          "name": "ticketId",
          "type": "uint256"
        }
      ],
      "name": "TicketBought",
      "type": "event"
    },
    {
      "anonymous": false,
      "inputs": [
        {
          "indexed": true,
          "internalType": "address",
          "name": "owner",
          "type": "address"
        },
        {
          "indexed": true,
          "internalType": "uint256",
          "name": "ticketId",
          "type": "uint256"
        },
        {
          "indexed": false,
          "internalType": "uint256",
          "name": "prize",
          "type": "uint256"
        }
      ],
      "name": "Won",
      "type": "event"
    },
    {
      "inputs": [
        {
          "internalType": "address",
          "name": "to",
          "type": "address"
        }
      ],
      "name": "buyTicket",
      "outputs": [],
      "stateMutability": "payable",
      "type": "function"
    },
    {
      "inputs": [
        {
          "internalType": "uint256",
          "name": "ticketId",
          "type": "uint256"
        }
      ],
      "name": "checkIfWinning",
      "outputs": [
        {
          "internalType": "bool",
          "name": "",
          "type": "bool"
        }
      ],
      "stateMutability": "view",
      "type": "function"
    },
    {
      "inputs": [],
      "name": "firstValidTicket",
      "outputs": [
        {
          "internalType": "uint256",
          "name": "",
          "type": "uint256"
        }
      ],
      "stateMutability": "view",
      "type": "function"
    },
    {
      "inputs": [
        {
          "internalType": "uint256",
          "name": "ticketId",
          "type": "uint256"
        }
      ],
      "name": "isExpired",
      "outputs": [
        {
          "internalType": "bool",
          "name": "",
          "type": "bool"
        }
      ],
      "stateMutability": "view",
      "type": "function"
    },
    {
      "inputs": [
        {
          "internalType": "uint256",
          "name": "ticketId",
          "type": "uint256"
        }
      ],
      "name": "isOldEnough",
      "outputs": [
        {
          "internalType": "bool",
          "name": "",
          "type": "bool"
        }
      ],
      "stateMutability": "view",
      "type": "function"
    },
    {
      "inputs": [],
      "name": "ticketPrice",
      "outputs": [
        {
          "internalType": "uint256",
          "name": "",
          "type": "uint256"
        }
      ],
      "stateMutability": "view",
      "type": "function"
    },
    {
      "inputs": [],
      "name": "winChanceDivisor",
      "outputs": [
        {
          "internalType": "uint256",
          "name": "",
          "type": "uint256"
        }
      ],
      "stateMutability": "view",
      "type": "function"
    },
    {
      "inputs": [
        {
          "internalType": "address",
          "name": "",
          "type": "address"
        }
      ],
      "name": "winnings",
      "outputs": [
        {
          "internalType": "uint256",
          "name": "",
          "type": "uint256"
        }
      ],
      "stateMutability": "view",
      "type": "function"
    },
    {
      "inputs": [
        {
          "internalType": "address payable",
          "name": "to",
          "type": "address"
        },
        {
          "internalType": "uint256",
          "name": "maxTicketId",
          "type": "uint256"
        }
      ],
      "name": "withdrawPrize",
      "outputs": [],
      "stateMutability": "nonpayable",
      "type": "function"
    }
  ],
  "bytecode": "0x60c06040526702c68af0bb140000608090815250600a60a090815250600060045534801561002c57600080fd5b5060805160a0516113e9610067600039600081816104c101526108720152600081816102470152818161051d015261093d01526113e96000f3fe6080604052600436106100865760003560e01c8063a5f8cdbb11610059578063a5f8cdbb1461015b578063c16514e514610177578063d9548e53146101a0578063ea3a1499146101dd578063ff2d78b31461021a57610086565b80631209b1f61461008b5780631a0d1396146100b65780639b2baea1146100e1578063a0f394641461011e575b600080fd5b34801561009757600080fd5b506100a0610245565b6040516100ad9190610c39565b60405180910390f35b3480156100c257600080fd5b506100cb610269565b6040516100d89190610c39565b60405180910390f35b3480156100ed57600080fd5b5061010860048036038101906101039190610c85565b61026f565b6040516101159190610ccd565b60405180910390f35b34801561012a57600080fd5b5061014560048036038101906101409190610c85565b610332565b6040516101529190610ccd565b60405180910390f35b61017560048036038101906101709190610d46565b61051b565b005b34801561018357600080fd5b5061019e60048036038101906101999190610db1565b610646565b005b3480156101ac57600080fd5b506101c760048036038101906101c29190610c85565b610794565b6040516101d49190610ccd565b60405180910390f35b3480156101e957600080fd5b5061020460048036038101906101ff9190610d46565b610858565b6040516102119190610c39565b60405180910390f35b34801561022657600080fd5b5061022f610870565b60405161023c9190610c39565b60405180910390f35b7f000000000000000000000000000000000000000000000000000000000000000081565b60045481565b6000816004548110156102b7576040517f08c379a00000000000000000000000000000000000000000000000000000000081526004016102ae90610e4e565b60405180910390fd5b6102c16003610894565b8110610302576040517f08c379a00000000000000000000000000000000000000000000000000000000081526004016102f990610eba565b60405180910390fd5b600060016000858152602001908152602001600020549050436002826103289190610f09565b1092505050919050565b60008160045481101561037a576040517f08c379a000000000000000000000000000000000000000000000000000000000815260040161037190610e4e565b60405180910390fd5b6103846003610894565b81106103c5576040517f08c379a00000000000000000000000000000000000000000000000000000000081526004016103bc90610eba565b60405180910390fd5b6103ce8361026f565b61040d576040517f08c379a000000000000000000000000000000000000000000000000000000000815260040161040490610fd1565b60405180910390fd5b60006001600085815260200190815260200160002054905061042e84610794565b1561046e576040517f08c379a00000000000000000000000000000000000000000000000000000000081526004016104659061103d565b60405180910390fd5b6000814060018361047f9190610f09565b4060028461048d9190610f09565b40876040516020016104a29493929190611100565b6040516020818303038152906040528051906020012060001c905060007f00000000000000000000000000000000000000000000000000000000000000007fffffffffffffffffffffffffffffffffffffffffffffffffffffffffffffffff61050b919061119e565b8210905080945050505050919050565b7f0000000000000000000000000000000000000000000000000000000000000000341461057d576040517f08c379a00000000000000000000000000000000000000000000000000000000081526004016105749061121b565b60405180910390fd5b60006105896003610894565b905061059560036108a2565b8160008083815260200190815260200160002060006101000a81548173ffffffffffffffffffffffffffffffffffffffff021916908373ffffffffffffffffffffffffffffffffffffffff160217905550436001600083815260200190815260200160002081905550808273ffffffffffffffffffffffffffffffffffffffff167f985d112c54c7518a49841fc37640d9ded60112ea7370ca9129c8ed33c3607bc760405160405180910390a35050565b61064f816108b8565b6000600260008473ffffffffffffffffffffffffffffffffffffffff1673ffffffffffffffffffffffffffffffffffffffff168152602001908152602001600020549050600081111561078f576000600260008573ffffffffffffffffffffffffffffffffffffffff1673ffffffffffffffffffffffffffffffffffffffff1681526020019081526020016000208190555060008373ffffffffffffffffffffffffffffffffffffffff16826040516107079061126c565b60006040518083038185875af1925050503d8060008114610744576040519150601f19603f3d011682016040523d82523d6000602084013e610749565b606091505b505090508061078d576040517f08c379a0000000000000000000000000000000000000000000000000000000008152600401610784906112cd565b60405180910390fd5b505b505050565b6000816004548110156107dc576040517f08c379a00000000000000000000000000000000000000000000000000000000081526004016107d390610e4e565b60405180910390fd5b6107e66003610894565b8110610827576040517f08c379a000000000000000000000000000000000000000000000000000000000815260040161081e90610eba565b60405180910390fd5b600060016000858152602001908152602001600020549050436101008261084e9190610f09565b1092505050919050565b60026020528060005260406000206000915090505481565b7f000000000000000000000000000000000000000000000000000000000000000081565b600081600001549050919050565b6001816000016000828254019250508190555050565b6108c26003610894565b81106108e15760016108d46003610894565b6108de91906112ed565b90505b60005b81600454111580156108fd57506108fc60045461026f565b5b15610add576000806000600454815260200190815260200160002060009054906101000a900473ffffffffffffffffffffffffffffffffffffffff1690507f0000000000000000000000000000000000000000000000000000000000000000826109679190610f09565b9150610974600454610794565b156109c4576004548173ffffffffffffffffffffffffffffffffffffffff167f751a0eb66c3cc9aa48957d09bd3cc81db888f5bcac6689def5fb9e18ec3cf20160405160405180910390a3610acc565b6109cf600454610332565b15610a84576004548173ffffffffffffffffffffffffffffffffffffffff167ffdc49939175858b2bb557093a7d52fa6b6f3aad917d282d61758fab4805f102a84604051610a1d9190610c39565b60405180910390a381600260008373ffffffffffffffffffffffffffffffffffffffff1673ffffffffffffffffffffffffffffffffffffffff1681526020019081526020016000206000828254610a749190610f09565b9250508190555060009150610acb565b6004548173ffffffffffffffffffffffffffffffffffffffff167f27c6d7467a9e62ceb584220b29b58a8352f8ca8f743e359e55d7a05bc06d114360405160405180910390a35b5b610ad7600454610ae1565b506108e4565b5050565b80600454811015610b27576040517f08c379a0000000000000000000000000000000000000000000000000000000008152600401610b1e90610e4e565b60405180910390fd5b610b316003610894565b8110610b72576040517f08c379a0000000000000000000000000000000000000000000000000000000008152600401610b6990610eba565b60405180910390fd5b6004548214610bb6576040517f08c379a0000000000000000000000000000000000000000000000000000000008152600401610bad90611393565b60405180910390fd5b600160046000828254610bc99190610f09565b92505081905550600160008381526020019081526020016000206000905560008083815260200190815260200160002060006101000a81549073ffffffffffffffffffffffffffffffffffffffff02191690555050565b6000819050919050565b610c3381610c20565b82525050565b6000602082019050610c4e6000830184610c2a565b92915050565b600080fd5b610c6281610c20565b8114610c6d57600080fd5b50565b600081359050610c7f81610c59565b92915050565b600060208284031215610c9b57610c9a610c54565b5b6000610ca984828501610c70565b91505092915050565b60008115159050919050565b610cc781610cb2565b82525050565b6000602082019050610ce26000830184610cbe565b92915050565b600073ffffffffffffffffffffffffffffffffffffffff82169050919050565b6000610d1382610ce8565b9050919050565b610d2381610d08565b8114610d2e57600080fd5b50565b600081359050610d4081610d1a565b92915050565b600060208284031215610d5c57610d5b610c54565b5b6000610d6a84828501610d31565b91505092915050565b6000610d7e82610ce8565b9050919050565b610d8e81610d73565b8114610d9957600080fd5b50565b600081359050610dab81610d85565b92915050565b60008060408385031215610dc857610dc7610c54565b5b6000610dd685828601610d9c565b9250506020610de785828601610c70565b9150509250929050565b600082825260208201905092915050565b7f54686973207469636b65742077617320616c7265616479206275726e65642e00600082015250565b6000610e38601f83610df1565b9150610e4382610e02565b602082019050919050565b60006020820190508181036000830152610e6781610e2b565b9050919050565b7f54686973207469636b657420646f65736e27742065786973742e000000000000600082015250565b6000610ea4601a83610df1565b9150610eaf82610e6e565b602082019050919050565b60006020820190508181036000830152610ed381610e97565b9050919050565b7f4e487b7100000000000000000000000000000000000000000000000000000000600052601160045260246000fd5b6000610f1482610c20565b9150610f1f83610c20565b9250827fffffffffffffffffffffffffffffffffffffffffffffffffffffffffffffffff03821115610f5457610f53610eda565b5b828201905092915050565b7f4e6f74207265616479207965742c20636865636b20616761696e206c6174657260008201527f2100000000000000000000000000000000000000000000000000000000000000602082015250565b6000610fbb602183610df1565b9150610fc682610f5f565b604082019050919050565b60006020820190508181036000830152610fea81610fae565b9050919050565b7f5469636b65742065787069726564210000000000000000000000000000000000600082015250565b6000611027600f83610df1565b915061103282610ff1565b602082019050919050565b600060208201905081810360008301526110568161101a565b9050919050565b6000819050919050565b6000819050919050565b61108261107d8261105d565b611067565b82525050565b600081905092915050565b7f2d00000000000000000000000000000000000000000000000000000000000000600082015250565b60006110c9600183611088565b91506110d482611093565b600182019050919050565b6000819050919050565b6110fa6110f582610c20565b6110df565b82525050565b600061110c8287611071565b60208201915061111b826110bc565b91506111278286611071565b602082019150611136826110bc565b91506111428285611071565b602082019150611151826110bc565b915061115d82846110e9565b60208201915081905095945050505050565b7f4e487b7100000000000000000000000000000000000000000000000000000000600052601260045260246000fd5b60006111a982610c20565b91506111b483610c20565b9250826111c4576111c361116f565b5b828204905092915050565b7f496e76616c696420616d6f756e74207061696420666f72207469636b65742e00600082015250565b6000611205601f83610df1565b9150611210826111cf565b602082019050919050565b60006020820190508181036000830152611234816111f8565b9050919050565b600081905092915050565b50565b600061125660008361123b565b915061126182611246565b600082019050919050565b600061127782611249565b9150819050919050565b7f4661696c656420746f2073656e64204574686572000000000000000000000000600082015250565b60006112b7601483610df1565b91506112c282611281565b602082019050919050565b600060208201905081810360008301526112e6816112aa565b9050919050565b60006112f882610c20565b915061130383610c20565b92508282101561131657611315610eda565b5b828203905092915050565b7f4f6e6c792074686520666972737420756e70726f636573736564207469636b6560008201527f742063616e206265206275726e65642100000000000000000000000000000000602082015250565b600061137d603083610df1565b915061138882611321565b604082019050919050565b600060208201905081810360008301526113ac81611370565b905091905056fea2646970667358221220942796d5cf6eb2e52235bdb8f57248199ce649f6a1a921250fa6d937b02d550864736f6c63430008090033",
  "linkReferences": {},
  "deployedLinkReferences": {}
}